{
  "contractName": "Image",
  "abi": [
    {
      "constant": true,
      "inputs": [],
      "name": "no_of_acc",
      "outputs": [
        {
          "name": "",
          "type": "uint256"
        }
      ],
      "payable": false,
      "stateMutability": "view",
      "type": "function"
    },
    {
      "constant": false,
      "inputs": [
        {
          "name": "_imageHash",
          "type": "string"
        },
        {
          "name": "_filename",
          "type": "string"
        },
        {
          "name": "a",
          "type": "address"
        }
      ],
      "name": "set",
      "outputs": [],
      "payable": false,
      "stateMutability": "nonpayable",
      "type": "function"
    },
    {
      "constant": true,
      "inputs": [
        {
          "name": "a",
          "type": "address"
        }
      ],
      "name": "getNum",
      "outputs": [
        {
          "name": "",
          "type": "uint256"
        }
      ],
      "payable": false,
      "stateMutability": "view",
      "type": "function"
    },
    {
      "constant": true,
      "inputs": [
        {
          "name": "a",
          "type": "address"
        }
      ],
      "name": "getFiles",
      "outputs": [
        {
          "name": "",
          "type": "string[]"
        }
      ],
      "payable": false,
      "stateMutability": "view",
      "type": "function"
    },
    {
      "constant": true,
      "inputs": [
        {
          "name": "a",
          "type": "address"
        }
      ],
      "name": "getHashes",
      "outputs": [
        {
          "name": "",
          "type": "string[]"
        }
      ],
      "payable": false,
      "stateMutability": "view",
      "type": "function"
    }
  ],
  "bytecode": "0x608060405234801561001057600080fd5b50610cbb806100206000396000f30060806040526004361061006d576000357c0100000000000000000000000000000000000000000000000000000000900463ffffffff168063193dd2ea14610072578063433bf37b146100af57806370b12988146100ec57806376aeb34b14610129578063bcc708bd14610154575b600080fd5b34801561007e57600080fd5b50610099600480360361009491908101906109e3565b61017d565b6040516100a69190610b3e565b60405180910390f35b3480156100bb57600080fd5b506100d660048036036100d191908101906109e3565b610371565b6040516100e39190610b3e565b60405180910390f35b3480156100f857600080fd5b50610113600480360361010e91908101906109e3565b610565565b6040516101209190610b60565b60405180910390f35b34801561013557600080fd5b5061013e6105b4565b60405161014b9190610b60565b60405180910390f35b34801561016057600080fd5b5061017b60048036036101769190810190610a0c565b6105ba565b005b6060806000600260008573ffffffffffffffffffffffffffffffffffffffff1673ffffffffffffffffffffffffffffffffffffffff168152602001908152602001600020600301600001546040519080825280602002602001820160405280156101fb57816020015b60608152602001906001900390816101e65790505b509150600090505b600260008573ffffffffffffffffffffffffffffffffffffffff1673ffffffffffffffffffffffffffffffffffffffff1681526020019081526020016000206003016000015481101561036757600260008573ffffffffffffffffffffffffffffffffffffffff1673ffffffffffffffffffffffffffffffffffffffff16815260200190815260200160002060030160010160008281526020019081526020016000208054600181600116156101000203166002900480601f01602080910402602001604051908101604052809291908181526020018280546001816001161561010002031660029004801561033a5780601f1061030f5761010080835404028352916020019161033a565b820191906000526020600020905b81548152906001019060200180831161031d57829003601f168201915b5050505050828281518110151561034d57fe5b906020019060200201819052508080600101915050610203565b8192505050919050565b6060806000600260008573ffffffffffffffffffffffffffffffffffffffff1673ffffffffffffffffffffffffffffffffffffffff168152602001908152602001600020600101600001546040519080825280602002602001820160405280156103ef57816020015b60608152602001906001900390816103da5790505b509150600090505b600260008573ffffffffffffffffffffffffffffffffffffffff1673ffffffffffffffffffffffffffffffffffffffff1681526020019081526020016000206001016000015481101561055b57600260008573ffffffffffffffffffffffffffffffffffffffff1673ffffffffffffffffffffffffffffffffffffffff16815260200190815260200160002060010160010160008281526020019081526020016000208054600181600116156101000203166002900480601f01602080910402602001604051908101604052809291908181526020018280546001816001161561010002031660029004801561052e5780601f106105035761010080835404028352916020019161052e565b820191906000526020600020905b81548152906001019060200180831161051157829003601f168201915b5050505050828281518110151561054157fe5b9060200190602002018190525080806001019150506103f7565b8192505050919050565b6000600260008373ffffffffffffffffffffffffffffffffffffffff1673ffffffffffffffffffffffffffffffffffffffff168152602001908152602001600020600301600001549050919050565b60035481565b82600090805190602001906105d092919061084d565b5081600190805190602001906105e792919061084d565b5060001515600260008373ffffffffffffffffffffffffffffffffffffffff1673ffffffffffffffffffffffffffffffffffffffff16815260200190815260200160002060000160009054906101000a900460ff16151514156106b2576001600260008373ffffffffffffffffffffffffffffffffffffffff1673ffffffffffffffffffffffffffffffffffffffff16815260200190815260200160002060000160006101000a81548160ff0219169083151502179055506003600081548092919060010191905055505b6001600260008373ffffffffffffffffffffffffffffffffffffffff1673ffffffffffffffffffffffffffffffffffffffff1681526020019081526020016000206001016001016000600260008573ffffffffffffffffffffffffffffffffffffffff1673ffffffffffffffffffffffffffffffffffffffff1681526020019081526020016000206001016000016000815480929190600101919050558152602001908152602001600020908054600181600116156101000203166002900461077c9291906108cd565b506000600260008373ffffffffffffffffffffffffffffffffffffffff1673ffffffffffffffffffffffffffffffffffffffff1681526020019081526020016000206003016001016000600260008573ffffffffffffffffffffffffffffffffffffffff1673ffffffffffffffffffffffffffffffffffffffff168152602001908152602001600020600301600001600081548092919060010191905055815260200190815260200160002090805460018160011615610100020316600290046108479291906108cd565b50505050565b828054600181600116156101000203166002900490600052602060002090601f016020900481019282601f1061088e57805160ff19168380011785556108bc565b828001600101855582156108bc579182015b828111156108bb5782518255916020019190600101906108a0565b5b5090506108c99190610954565b5090565b828054600181600116156101000203166002900490600052602060002090601f016020900481019282601f106109065780548555610943565b8280016001018555821561094357600052602060002091601f016020900482015b82811115610942578254825591600101919060010190610927565b5b5090506109509190610954565b5090565b61097691905b8082111561097257600081600090555060010161095a565b5090565b90565b60006109858235610c0e565b905092915050565b600082601f83011215156109a057600080fd5b81356109b36109ae82610ba8565b610b7b565b915080825260208301602083018583830111156109cf57600080fd5b6109da838284610c2e565b50505092915050565b6000602082840312156109f557600080fd5b6000610a0384828501610979565b91505092915050565b600080600060608486031215610a2157600080fd5b600084013567ffffffffffffffff811115610a3b57600080fd5b610a478682870161098d565b935050602084013567ffffffffffffffff811115610a6457600080fd5b610a708682870161098d565b9250506040610a8186828701610979565b9150509250925092565b6000610a9682610be1565b80845260208401935083602082028501610aaf85610bd4565b60005b84811015610ae8578383038852610aca838351610af9565b9250610ad582610bf7565b9150602088019750600181019050610ab2565b508196508694505050505092915050565b6000610b0482610bec565b808452610b18816020860160208601610c3d565b610b2181610c70565b602085010191505092915050565b610b3881610c04565b82525050565b60006020820190508181036000830152610b588184610a8b565b905092915050565b6000602082019050610b756000830184610b2f565b92915050565b6000604051905081810181811067ffffffffffffffff82111715610b9e57600080fd5b8060405250919050565b600067ffffffffffffffff821115610bbf57600080fd5b601f19601f8301169050602081019050919050565b6000602082019050919050565b600081519050919050565b600081519050919050565b6000602082019050919050565b6000819050919050565b600073ffffffffffffffffffffffffffffffffffffffff82169050919050565b82818337600083830152505050565b60005b83811015610c5b578082015181840152602081019050610c40565b83811115610c6a576000848401525b50505050565b6000601f19601f83011690509190505600a265627a7a72305820e52f5bc4e6ddd4db7bdbf54d3f5eec01499d1ab7c7dd8562ef2197a3de224ba26c6578706572696d656e74616cf50037",
  "source": "pragma solidity >=0.4.24;\npragma experimental ABIEncoderV2;\n\ncontract Image{\n  string imageHash;\n  string fileName;\n\n  struct Accounts{ \n  bool exists;\n  FileNames fn;\n  ImageHashes ih;\n  }\n\n  mapping(address=>Accounts)  addre;\n  uint public no_of_acc;\n\n  struct FileNames{ \n  uint nums;\n  mapping(uint => string) file_names;\n  }\n\n  struct ImageHashes{\n  uint no_of_img;\n    mapping(uint => string) file_img;\n  }\n\n  FileNames fn;\n  ImageHashes ih;\n\n  function set(string memory _imageHash,string memory _filename,address a) public {\n    imageHash = _imageHash;\n    fileName = _filename;\n    if( addre[a].exists==false){\n     addre[a].exists=true;\n     no_of_acc++;\n    }\n    addre[a].fn.file_names[addre[a].fn.nums++]=fileName;\n    addre[a].ih.file_img[ addre[a].ih.no_of_img++]=imageHash;\n  }\n\n  function getNum(address a) public view returns (uint){\n    return addre[a].ih.no_of_img;\n  }\n\n  function getFiles(address a) public view returns (string[ ] memory){\n    string[ ] memory fileArray = new string[ ](addre[a].fn.nums);\n    for( uint i =0; i< addre[a].fn.nums;i++){\n      fileArray[ i ] = addre[a].fn.file_names[i];\n    }\n    return fileArray;\n  }\n\n  function getHashes(address a) public view returns (string[ ] memory){\n    string[ ] memory imgArray = new string[ ](addre[a].ih.no_of_img);\n    for( uint i =0; i< addre[a].ih.no_of_img;i++){\n      imgArray[ i ] = addre[a].ih.file_img[ i ];\n    }\n   return imgArray;\n  }\n}\n",
  "sourcePath": "D:/My files/Academics/BITS Pilani/Sem II/2.NS/IPFS-EthereumDapp-master/src/contracts/Image.sol",
  "compiler": {
    "name": "solc",
    "version": "0.4.24+commit.e67f0147.Emscripten.clang"
  },
  "schemaVersion": "3.4.1",
  "updatedAt": "2021-06-12T14:26:41.978Z",
  "networkType": "ethereum",
  "devdoc": {
    "methods": {}
  },
  "userdoc": {
    "methods": {}
  }
}